:100000000C94991F0C94CA1F0C94CA1F0C94CA1FFD
:100010000C94CA1F0C94CA1F0C94CA1F0C94CA1FBC
:100020000C94CA1F0C94CA1F0C94CA1F0C94CA1FAC
:100030000C94CA1F0C94CA1F0C94CA1F0C94CA1F9C
:100040000C94CA1F0C9445230C94CA1F0C94CA1F0D
:100050000C94CA1F0C94CA1F0C94CA1F0C949B22A8
:100060000C94CA1F0C940F230C94E5220C94CA1F05
:100070000C94CA1F0C94D7230C94CA1F0C94CA1F4B
:100080000C94CA1F0C94CA1F0C94CA1F0C94CA1F4C
:100090000C94CA1F0C94CA1F0C94CA1F0C94CA1F3C
:1000A0000C94CA1F0C94CA1F0C94CA1F0C94CA1F2C
:1000B0000C94CA1F0C94CA1F0C94CA1F0C94CA1F1C
:1000C0000C94CA1F0C94CA1F0C94CA1F0C94CA1F0C
:1000D0000C94CA1F0C94CA1F0C94CA1F0C94CA1FFC
:1000E0000C94CA1F0C9410200C9460200C94F320E4
:1000F0000C944C200C94A6200C943D200C94F723D7
:100100000C946E20010001000100010001000100BB
:1001100001000302030201000100010001000100CF
:1001200001000100010001000100010001000100C7
:1001300001000100010001000100010001000100B7
:1001400001000100010001000000000001000100A9
:100150000100010001000100010001000100010097
:100160000100010001000100010001000100010087
:100170000100010001000100010001000100010077
:100180000100010001000100010001000100010067
:100190000000000033362D3220776974682031204A
:1001A000746F6F74682063616D00020202020202C4
:1001B000030302020202030302020202020202021B
:1001C000020202020202020203030202020203030B
:1001D00002020202020202020202020202020202FF
:1001E00003030202020203030202020202020202EB
:1001F00002020202020202020303020202020303DB
:1002000002020202020202020202020202020202CE
:1002100003030202020203030202020202020202BA
:1002200002020000000000000101000000000101C6
:1002300000000000000000000000000000000000BE
:1002400001010000000001010000000000000000AA
:10025000000000000000000001010000000001019A
:10026000000000000000000000000000000000008E
:10027000010100000000010100000000000000007A
:10028000000000000000000001010000000001016A
:1002900000000000000000000000446F646765205B
:1002A00056697065722056313020313939362D3219
:1002B00030303200010001000100010001000100A6
:1002C0000100010001000100010001000100010026
:1002D00001000706070607060706070607060706C2
:1002E00007060100010001000100010001000100FA
:1002F00001000100010001000100010001000100F6
:1003000001000100010001000100010001000706D9
:100310000706070607060706070607060706070675
:100320000706070607060706060606060706070667
:100330000706070607060706070607060706070655
:100340000706070607060706070601000100010069
:100350000100010001000100070607060706070665
:100360000706070607060706070607060706070625
:100370000706070607060706070607060706070615
:100380000706070607060100010001000100010041
:100390000100010001000100010001000100010055
:1003A00000000000424D57204E3230000000000097
:1003B000000000000000000000000000000000003D
:1003C000000000000000000100000000000000002C
:1003D000000100000000000000000001000000001B
:1003E000000000000001000000000000000000000C
:1003F00000000000000202020202020202020202E7
:1004000002020203020202020202020202030202CA
:1004100002020202020202030202020202020202BB
:1004200002030202020202020202020202020202AB
:10043000020202020202020202020202020202039B
:10044000020202020202020202030202020202028B
:10045000020202030202020202020202020302027A
:10046000020202020202020202020202020202026C
:10047000020202020202020202020203020202025B
:10048000020202020203020202020202020202034A
:10049000020202020202020202030202020202023B
:1004A000020202020202020202000000000000003A
:1004B000000000000000000100000000000000003B
:1004C000000100000000000000000001000000002A
:1004D000000000000001000000000000000000001B
:1004E000000000000000000000000000000000000C
:1004F00000000001000000000000000000010000FA
:1005000000000000000000010000000000000000EA
:10051000000100004A656570203230303000010172
:1005200001010101020202020000030303030303AD
:1005300002020000000001010101010100000000B1
:1005400000000101010101010000000000000101A3
:100550000101010100000000000001010101010191
:1005600000000000000053757A756B692044525AF0
:1005700034303000010102000000000000000000E3
:100580000101000000000000000000000101000067
:100590000000000000000000010100000000000059
:1005A0000000000001010000000000000000000049
:1005B0000101000000000000000000000101000037
:1005C0000000000000000000010100000000000029
:1005D0000000000001010000000000000000000019
:1005E0000101000000000000000000000101000007
:1005F00000000000000000000101000000000000F9
:1006000000000000546F796F7461203441475A45EF
:1006100000010102020000000000000000000000D4
:1006200000000000000000000000000000000000CA
:1006300000000000000101000000000000000000B8
:1006400000000000000000000000000000000000AA
:100650000000000000000000000101000000000098
:10066000000000000000000000000000000000008A
:100670000000000000000000000000000001010078
:10068000000000000000000000000000000000006A
:10069000000000000000000000000000000000005A
:1006A00000546F796F7461203441474500010001A7
:1006B0000001000100010001000100010001000132
:1006C0000002000100010001000100010001000121
:1006D0000001000100010001000000010001000113
:1006E0000001000100010001000100010001000102
:1006F00000020002000100010001000100010001F0
:1007000000010001000100010000000100010001E2
:1007100000010001000100010001000100010001D1
:1007200000020001000100010001000100010001C0
:10073000000100010001000100000000004D69748B
:1007400073756269736869203341393200000101B1
:100750000101000000000000000000000000000196
:10076000010101010101000000000001010101017E
:100770000000000000010101010100000000010172
:100780000101010000000000010101010100000061
:100790000000030303030302020202020303030334
:1007A0000302020202020303030303020202020223
:1007B0000303030301000000000001010101010027
:1007C0000000000001010101010000000000010122
:1007D0000101010000000000010101010100000011
:1007E0000000010101010100000000000101010100
:1007F00003020202020203030303030202020202D3
:1008000003030303030202020202030303010100C4
:1008100000000000010101010100000000000101D1
:1008200001010100000000000101010101000000C0
:1008300000000101010101000000000001010101AF
:100840000100000000000101010303020202020294
:10085000030303030302020202020303030303026E
:100860000202020203030301010100000000010172
:10087000010101010000000001010101010100006E
:100880000000000101010101000000000001010160
:100890000101000000000001010101010000000051
:1008A000000101010101000000000001010101013E
:1008B0000000000000010101010100000000000033
:1008C0000000000000000000010101010101000022
:1008D0000000000101010101000000000001010110
:1008E0000101000000000001010101010000000001
:1008F00000010101010100000000000303030303E4
:1009000002020202020303030303020202020203C1
:1009100003030303020202020203030303010000B4
:1009200000000001010101010000000000010101BF
:1009300001010000000000010101010101000000AF
:10094000000101010101010000000000010101019D
:100950000100000000000101010101000000000091
:10096000010101010100000000000101010101007D
:100970000000000001010101010000000000010170
:10098000010101000000000001010101010000005F
:10099000000001010101010000000000010101014E
:1009A0000100000000000101010101000000000041
:1009B000010303030302020202020303030303020F
:1009C00002020202030303030303020202020303FF
:1009D000030101010000000000010101010100000C
:1009E00000000001010101010000000000010101FF
:1009F00001010000000000010101010100000000F0
:100A000000010101010100000000000101010101DC
:100A100000000000000101010101000000466F72AA
:100A20006420535431373000000000000000000003
:100A3000000000020202020202020202020303029A
:100A40000203030202030302020303020202020280
:100A5000020000000000000101010101010101018B
:100A6000010101000001010000010100000101007D
:100A7000000000000000000000000002020202026C
:100A80000202020202030302020303020203030240
:100A90000203030202020202020202020202020333
:100AA000030303030301010101010100000101002F
:100AB000000101000001010044534D203432306137
:100AC0000000000000000000000000000000000026
:100AD0000000000000000101000000000000000014
:100AE0000000000000000000000000000000000006
:100AF00000000000010100000001010000000000F2
:100B000000000000000000000000000000000000E5
:100B100000000101000000000000000000000000D3
:100B200000000000000000000000000000000000C5
:100B300001010000000000000000000000000000B3
:100B400000000000000000000000000000000101A3
:100B50000000000000000000000000000000000095
:100B60000000000000000000000000000101000083
:100B70000000000000474D20375800000000000032
:100B80000202020000000202020000000202020053
:100B90000000000000000000000000000000000055
:100BA0000000000000000000000000000000000045
:100BB0000000000000000000000000000000000035
:100BC0000000000000000000000000000000010123
:100BD0000100000000000000000000000000000014
:100BE0000000000000000000000000000000010103
:100BF00001000000000000000000000000000000F4
:100C000000000000000000000000000000000000E4
:100C100000000000000000000000000000000000D4
:100C200000000000000101010000000000000000C1
:100C300000000000000000000000000000000000B4
:100C4000000000020202000000000000000000009E
:100C50000000000000000000000000000000000094
:100C60000000000000000000000000000000000084
:100C70000000000000000000000000000000000074
:100C80000000010101000000000000000000000061
:100C90000000000000000000000000000000000054
:100CA0000000010101000000000000000000000041
:100CB0000000000000000000000000000000000034
:100CC0000000000000000000000000000000000024
:100CD0000000000000000000000101010000000011
:100CE0000000000000000000000000000000000004
:100CF00000000000000000020202000000020202E8
:100D000000000000000000000000000000000000E3
:100D100000000000000000000000000000000000D3
:100D200000000000000000000000000000000000C3
:100D300000000000000001010100000000000000B0
:100D400000000000000000000000000000000000A3
:100D50000000000000000101010000000000000090
:100D60000000000000000000000000000000000083
:100D70000000000000000000000000000000000073
:100D80000000000000000000000000000001010160
:100D90000000000000000000000000000000000053
:100DA000000000000000000000000002020200003D
:100DB0000000000000000000000000000000000033
:100DC0000000000000000000000000000000000023
:100DD0000000000000000000000000000000000013
:100DE0000000000000000000000001010100000000
:100DF00000000000000000000000000000000000F3
:100E000000000000000000000000010101000000DF
:100E100000000000000000000000000000000000D2
:100E200000000000000000000000000000000000C2
:100E300000000000000000000000000000000000B2
:100E400000010101000000000000005375626172A2
:100E50007520362F37206372616E6B20616E6420BF
:100E600063616D000000010000010000010000014D
:100E7000000001000001000001000001000001006D
:100E8000000100000100000100000100000100005D
:100E9000010000010000010000010000010000014C
:100EA000000001000001000001000001000001003D
:100EB000000100000100000100000100000100002D
:100EC000010000010000010000010000010000011C
:100ED000000001000001000001000001000001000D
:100EE00000010202030202010000010000010000F3
:100EF0000100000132342F31202832342063726126
:100F00006E6B20776974682063616D2900000000B2
:100F100000000100000000000100000000000100CE
:100F200000000000010000000000010000000000BF
:100F300001000000000001000000000001000000AE
:100F4000000001000000000001000000000001009E
:100F5000000000000100000000000100000000008F
:100F6000010000000000010000000000010000007E
:100F7000000001000000000001000000000001006E
:100F80000000000001000000000001020202020255
:100F90000100000000000100000000000131322FBC
:100FA0003120283132206372616E6B20776974685A
:100FB0002063616D290000000000000002020000B3
:100FC000000000000000000000010100000000001F
:100FD000000000000000000101000000000000000F
:100FE00000000000000000000000000000010100FF
:100FF00000000000000000000000000101000000EF
:1010000002020000020200000000000000000000D8
:1010100000010100000000000000000000000001CD
:1010200001000000000000000000000000000000BF
:1010300000000000000101000000000000000000AE
:101040000000000101004D696174612039392D30C3
:101050003500010100000000010100000000000057
:101060000000000000000000000000000000000080
:101070000000000000000000000000000000000070
:10108000000001010000000000000000000000005E
:101090000000000000000000000000000000000050
:1010A0000000000000000000000000000000000040
:1010B000000001010000000000000000000000002E
:1010C0000000000000000000000000000000000020
:1010D0000000000000000000000000000000000010
:1010E0000000446169686174737520332B3120649A
:1010F00069737472696275746F7220283320637922
:101100006C696E64657273290000000000000200C3
:1011100000010000000000010000000000020002C9
:10112000010000000000014D617A64612033323318
:101130002041552076657273696F6E0001000000D2
:10114000000001000000000001000000000001009C
:10115000000000000100000000000100000000008D
:10116000010000000000010000000000010000007C
:10117000000001000000000001000000000001006C
:10118000010000000100000000000100000000005C
:10119000010000000000010000000000010000004C
:1011A000000001000000000001000000000001003C
:1011B000000000000100000000000100000000002D
:1011C000010000000000010001000000486F6E6493
:1011D0006120443137204372616E6B202831322BFD
:1011E0003129000303020203030202030302000188
:1011F00001000001010000010100000101000001E7
:1012000001000001010000010100000101000001D6
:1012100001000001010000010100000101000001C6
:1012200001000001010000010100000101000001B6
:101610000100000101000001010002417564692020
:1016200031333520746F6F7468206372616E6B2084
:10163000616E642063616D00020202020202020216
:101640000202020000000000000000000001010191
:10165000010101010101010101010100000000007F
:101660000000000000000000000000000000020276
:101670000203030303030303030303030101010044
:10168000000000000000000000000000000000005A
:10169000000000000001010101010101010101013F
:1016A0000101010000000000000000000000000037
:1016B0000000000000000000020303030303030313
:1016C00003030303030303024D69747375626973B3
:1016D0006869203467363320616B6120342F3220F3
:1016E0006372616E6B20616E642063616D00010145
:1016F00000000001010000000101000000010100E4
:1017000000000101000000010100000001010000D3
:1017100000010302020203030202020301000000AF
:1017200001010000000000000000000000000001B6
:101730000302020202020202020200000000010192
:101740000000000101000000010100000001010093
:101750000000010100000001010000000101000083
:10176000000101000000010100000001030202026B
:101770000303020202030100000001010000000057
:101780000000000000000000000103020202030349
:10179000020202030100000001010000000101003B
:1017A0000000010100000001010000000101000033
:1017B0000001010000000101000000010100000023
:1017C0000101000000010100000001010000000112
:1017D0000100000001010000000000000000000006
:1017E00000000001030202020202020202020000E3
:1017F00000000101000000010100000001010000E3
:1018000000010100000001010000000101000000D2
:1018100001010000000101000000010100000001C1
:1018200001000000010100000001010000000101B1
:1018300000000000000000000000000000010302A2
:101840000202030302020203010000000101000082
:101850000001010000004D617A64612033362D32B1
:101860002D322D322077697468203620746F6F74A2
:10187000682063616D0000010101000101010001A8
:10188000010100010101000101010001010100014C
:10189000010100010101000101010001010100013C
:1018A000010100010101020101010001010100012A
:1018B0000101000101010001010102010101010119
:1018C000010101010101000101010001010100010B
:1018D00001010001010100010101000101010001FC
:1018E00001010001010100010101000101010001EC
:1018F00001010001010100010101000101010001DC
:1019000001010001010100010101020101010101C8
:1019100001010101010100010101000101010001BA
:1019200001010001010100010101000101010001AB
:10193000010100010101000101010001010100019B
:10194000010100010101000101010001010100018B
:101950000101000101010001010102010101010178
:10196000010101010101000101010001010100016A
:10197000010100010101000101010001010100015B
:10198000010100010101000101010001010100014B
:10199000010100010101000101010001010100013B
:1019A0000101000101010001010102010101010128
:1019B000010101010101000101010001010100011A
:1019C000010100010101000101010001010100010B
:1019D00001010001010100010101000101010001FB
:1019E00001010001010100010101000101010001EB
:1019F00001010001010100010101020101010101D8
:101A000001010101010100010101000101010001C9
:101A100001010001010100010101000101010001BA
:101A200001010001010100010101000101010001AA
:101A3000010100010101000101010001010100019A
:101A40000101000101010001010102010101010187
:101A5000010101010101566F6C766F206431325B28
:101A60006163645D206372616E6B207769746820C6
:101A70003720746F6F74682063616D00010001008E
:101A8000010001000302030203020302474D203854
:101A9000206576656E2D746F6F7468206372616E59
:101AA0006B2077697468203120746F6F74682063CD
:101AB000616D0001000100010003020302030247FF
:101AC0004D2036206576656E2D746F6F74682063C7
:101AD00072616E6B2077697468203120746F6F7447
:101AE000682063616D000100010003020302474D9D
:101AF0002034206576656E2D746F6F746820637274
:101B0000616E6B2077697468203120746F6F746820
:101B10002063616D00000000010000000100000072
:101B200001000000010000000100000001000000B1
:101B30000100000001000202030200000100000099
:101B40000100000001000000010000000100000091
:101B5000010000000159616D61686120323030324E
:101B60002D30332052312038206576656E2D746F0C
:101B70006F7468206372616E6B20776974682031BE
:101B800020746F6F74682063616D000100000100B4
:101B90000001000001000001000001000001000040
:101BA0000100000100000100000302020202020322
:101BB0000000010000010000010000010000010020
:101BC0000001000001000001000001000001000010
:101BD0000000004D617A6461204341532032342D6E
:101BE0003220776974682073696E676C6520707540
:101BF0006C7365206F757465722072696E67000280
:101C000001000100010001000302030203020302BC
:101C1000030203020302030203020302030203029C
:101C2000030203020302030203020302030203028C
:101C3000030203020302030203020302030203027C
:101C4000030203020302030203020302030203026C
:101C5000030203020302030203020302030203025C
:101C6000030203020302030203020302030203024C
:101C7000030203020302030201000100010001004C
:101C8000010001000100010003020302030203023C
:101C9000030203020302030203020302030203021C
:101CA000030203020302030203020302030203020C
:101CB00003020302030203020302030203020302FC
:101CC00003020302030203020302030203020302EC
:101CD00003020302030203020302030203020302DC
:101CE00003020302030203020302030203020302CC
:101CF00001000100010001000100010001000100DC
:101D000001000100010001000302030203020302BB
:101D1000030203020302030203020302030203029B
:101D2000030203020302030203020302030203028B
:101D3000030203020302030203020302030203027B
:101D4000030203020302030203020302030203026B
:101D5000030203020302030203020302030203025B
:101D6000030203020302030201000100010001005B
:101D7000010001000100010001000100010001005B
:101D8000010001000100010003020302030203023B
:101D9000030203020302030203020302030203021B
:101DA000030203020302030203020302030203020B
:101DB00003020302030203020302030203020302FB
:101DC00003020302030203020302030203020302EB
:101DD00003020302030203020302030203020302DB
:101DE00001000100010001000100010001000100EB
:101DF00001000100010001000100010001000100DB
:101E000001000100010001000302030203020302BA
:101E1000030203020302030203020302030203029A
:101E2000030203020302030203020302030203028A
:101E3000030203020302030203020302030203027A
:101E4000030203020302030203020302030203026A
:101E5000030203020302030201000100010001006A
:101E6000010001000100010001000100010001006A
:101E7000010001000100010001000100010001005A
:101E8000010001000100010003020302030203023A
:101E9000030203020302030203020302030203021A
:101EA000030203020302030203020302030203020A
:101EB00003020302030203020302030203020302FA
:101EC0000302030203020302030203020302034E9E
:101ED000697373616E203336302043415320776934
:101EE0007468203620736C6F747300020202020261
:101EF00002020202020202020202020202020202C2
:101F000002020202020202020202020202020202B1
:101F100002020200000000000000000000000000BB
:101F2000000000000000000202020202020202029F
:101F3000020202020202020202020202020203037F
:101F4000030303020202020202020202020202026E
:101F5000020202020202020202020202020203035F
:101F6000030303020202020202020202020202024E
:101F70000202020202020202020202020202020241
:101F80000202020202020202020202020202020231
:101F9000020202020203030303030202020202021C
:101FA0000202020202020202020202020202020211
:101FB0000202020202020202020202020202020201
:101FC00002020202020202020202020202020202F1
:101FD00002000000000000000000000000000000FF
:101FE00000000000000000000000000000000000F1
:101FF00000000101010101000000000000000000DC
:1020000000000000000000000000000000000000D0
:1020100000000101010101000000000000000000BB
:1020200000000000000000000000000000000000B0
:1020300000000000000000000000000000000000A0
:10204000000000000000000000010101010100008B
:102050000000000000000000000000000000000080
:102060000000000000000000000000000000000070
:102070000000000000000000000000020202020256
:102080000202020202020202020202020202020032
:102090000000000000000000000000000000000040
:1020A000000000000000010101010100000000002B
:1020B0000000000000000000000000000000000020
:1020C000000000000000010101010100000000000B
:1020D0000000000000000000000000000000000000
:1020E00000000000000000000000000000000000F0
:1020F00000000000000000000000000000010101DD
:1021000001010000000000000000000000000000CD
:1021100000000000000000000000000000000000BF
:1021200000000000000000000000000000000000AF
:102130000000000000000000000202020202020291
:10214000020202020202020202020202020202026F
:10215000020202020202020202020303030303025A
:10216000020202020202020202020202020202024F
:10217000020202020202020202020303030303023A
:10218000020202020202020202020202020202022F
:10219000020202020202020202020202020202021F
:1021A000020202020202020202020202020202020F
:1021B0000203030303030202020202466961742060
:1021C000312E3820313656206372616E6B20616E7D
:1021D000642063616D00000000000000000000004A
:1021E00000000000000001010000000002020202E5
:1021F00000000000000000000101000000000000DD
:1022000000000000000000000000010100000000CC
:1022100002020202000000000000000001010000B4
:1022200000000000000000000000000000000101AC
:10223000000000000000000000000000000000009E
:10224000010100000000000000000000000000008C
:10225000000001010000000000000000000000007C
:1022600000000000010157656265722D4D617265C5
:102270006C6C692038206372616E6B2B3220636155
:102280006D207061747465726E00000000000000C3
:10229000000000000000000000000000000000003E
:1022A0000000000101010101000000000001010126
:1022B0000101000000000001010101010000000017
:1022C0000001010101010000000000010101010104
:1022D00000000000000101030303020202020201E8
:1022E00001010101000000000001010101010000E5
:1022F00000000001010101010000000000010101D6
:1023000001010000000000010101010100000000C6
:1023100000010101010100000000000101010101B3
:1023200000000000000101010101000000000001A7
:102330000103030302020202020101010101000084
:102340000000000101010303030303030303010170
:102350000101010101010101010101010000000071
:102360000001010101010000000000010101010163
:102370000000000000010101010100000000000157
:10238000010101010000000000010103030302023A
:10239000020202010101010100000000000101012F
:1023A0000303020202020203010101010000000016
:1023B0000001010101030202020202030301010103
:1023C0000000000000010101010100000000000107
:1023D00001010101000000000001010101010000F4
:1023E00000000001010303030202020202010101D5
:1023F00001010000000000000000020202020202CF
:1024000002020000000000000000000101010101C3
:1024100000000000000101010101000000000001B6
:1024200001010101000000000001010101010000A3
:102430000000000101010101000000000001010392
:102440000303020202020201010101010000000077
:102450000001010103030202020202030101010162
:102460000000000000010101010100000000000166
:102470000101010100000000000101010101000053
:102480000000000101010101000000000001010144
:102490000101000000000001010303030202020227
:1024A0000201010101010000000000010101010120
:1024B000010101010101010101010101010101010C
:1024C0000101010100000000000101010101000003
:1024D00000000001010101010000000000010101F4
:1024E00001010000000000010101010100000000E5
:1024F00000010103030302020202020101010101C2
:1025000000000000000101010303020202020203B5
:1025100001010101000000000001010101030202AC
:102520000202020303010101000000000001010199
:102530000101000000000001010101010000000094
:10254000000101010101000000000001010303037B
:102550000202020202010101010143687279736CF7
:102560006572204E47432033362D322B3220637262
:10257000616E6B2C204E474320382D63796C2063AD
:10258000616D000202000000000000000000000079
:102590000202020202020202020200000101010123
:1025A0000100000000020303030303020202020011
:1025B0000101010101000000000001010101010011
:1025C0000000000001010101010000000000010104
:1025D00001010100000000000101010101000000F3
:1025E00000000101010101000000000001010101E2
:1025F00001000002020203030303030202000000C1
:1026000001010101010000000000010101010100C0
:1026100000000000010101010100000000000101B3
:1026200001010100000000000101010101000000A2
:102630000000010101010100000000000101010191
:10264000010101010101010101010101010101017A
:102650000101010101000000000001010101010070
:102660000000000001010101010000020202030359
:102670000303030202000000010101010100000048
:10268000020203030303030202020000010101012D
:102690000100000000000101010101000000000034
:1026A0000101010101000000000001010101010020
:1026B0000000000001010101010000000000010113
:1026C0000101010000000000010101010100000002
:1026D00000000101010101000000000001010101F1
:1026E00001000002020203030303030202000000D0
:1026F00000000000000000000202020202020202CA
:1027000002020000010101010100000000020303B8
:1027100003030302020202000101010101000000A3
:1027200000000101010101000000000001010101A0
:102730000100000000000101010101000000000093
:10274000010101010100000000000101010101007F
:102750000000000001010101010000020202030368
:102760000303030202000000010101010100000057
:10277000020203030303030202020000010101013C
:102780000100000000000101010101000000000043
:10279000010101010100000000000101010101002F
:1027A000000000000101010101010101010101011D
:1027B000010101010101010101010101010000000C
:1027C0000000010101010100000000000101010100
:1027D00001000002020203030303030202000000DF
:1027E00001010101010000000000010101010100DF
:1027F00000000000010101010100000000000101D2
:1028000001010100000000000101010101000000C0
:1028100000000101010101000000000001010101AF
:1028200001000000000001010101010000000000A2
:10283000010101010100000000000101010101008E
:102840000000000001010101010000020202030377
:1028500003030343687279736C6572204E4743200B
:1028600033362D322B32206372616E6B2C204E4733
:102870004320362D63796C2063616D0000000000F9
:102880000001010101010101010101010101010139
:102890000101010101030303030302020202020317
:1028A00003030303020202020203030303030202FF
:1028B00002020203030303030200000000010101FE
:1028C0000101000000000001010101010000000001
:1028D00000010101010100000000000101030303E8
:1028E00002020202020303030303020202020203C2
:1028F00003030303020202020203030303030202AF
:1029000002000001010101010000000000010101BD
:1029100001010000000000010101010100000000B0
:102920000001010101030202020202030303030387
:102930000202020202020202020202020202020277
:102940000202020202020202020303030303020262
:10295000020202030303030302020202020303034F
:102960000303020202020203030303030202020240
:10297000020303030303020202020203030303032D
:102980000202020202030303030302020202020321
:10299000030303030202020202030303030302020E
:1029A00002020203030303030202020202030303FF
:1029B0000303020202000001010101010000000006
:1029C00000010101010100000000000101010101FD
:1029D00000000000000101010103020202020203E3
:1029E00003030303020202020203030303030303BC
:1029F00003030303030303030303030303010101AD
:102A000001010000000000010101010100000000BF
:102A100000010101010100000000000101010101AC
:102A20000002020202030303030302020202020382
:102A3000030303030202020202030303030302026D
:102A40000202020303010101000000000001010174
:102A5000010100000000000101010101000000006F
:102A6000000101010101000000020203030303034E
:102A70000202020202030303030302020202020330
:102A80000303030302020202020303030301000023
:102A90000000000101010101000000000000000031
:102AA0000000000000000000000000000000000026
:102AB000000101010101000000000001010101010C
:102AC0000000000000010101010100000000000100
:102AD00001010101000000000001010101010000ED
:102AE00000000001010101010000000000010101DE
:102AF00001010000000000010101010100000000CF
:102B000000010101010100000000000101010101BB
:102B100000000000000101010101000000020203A9
:102B2000030303030202020202030303030302027C
:102B3000020202030303030302020202020303036D
:102B400003010000000000010101010143687279E6
:102B5000736C6572204E47432033362B322D322062
:102B60006372616E6B2C204E474320342D63796C69
:102B70002063616D000100010001000100010001FE
:102B8000000100010001000100010001000100013D
:102B9000000100010001000100010001000100012D
:102BA000000100010001000100010001000100011D
:102BB0000001000100030203020100000001000106
:102BC00000010001000100010001000100010001FD
:102BD00000010001000100010001000100010001ED
:102BE00000010001000100010001000100010001DD
:102BF00000010001000100010001000100010001CD
:102C0000000100000033362D31206372616E6B20AD
:102C10007769746820326E642074726967676572C0
:102C2000206F6E2074656574682033332D33340053
:102C3000000100010001000100010003000100018A
:102C4000000100010001000100010001000100037A
:102C5000000100030001000100010001000100016A
:102C6000486F6E6461205243353120776974682063
:102C700063616D000100010001000100010001001D
:102C8000010001000100010001000100010000003D
:102C9000010001000000010001000100010001002D
:102CA000010001000100010001000100010001001C
:102CB0000100000001000100010000004F646420D9
:102CC0004C6F7475732033362D312D312D312D31EC
:102CD00020666C79776865656C000100010003026D
:102CE00003020302030203020302010001000100C8
:102CF00001000100010001000100010001000100CC
:102D000001000100010001000100010001000100BB
:102D1000010001000100010001000302030203029F
:102D2000030203020302010001000100010003028B
:102D3000030203020302030203020302030203026B
:102D4000030203020302030203020302030202025C
:102D5000020203020302030203020302030203024C
:102D6000030201000100010001000302030203024B
:102D7000030203020302030203020302030203022B
:102D8000030203020302030203020302030203021B
:102D9000030203020302030203020302030201000F
:102DA000010001000100010001000100010001001B
:102DB000010001000100010001000100010001000B
:102DC00001000100010000000000474D2035387867
:102DD000206372616E6B20616E64203478206361C1
:102DE0006D00040000000000000000000000010170
:102DF00001000000010101010101010101010101C6
:102E000000000001010101010101010101010100B6
:102E100000000101010101010101010101010000A6
:102E20000001010101010101010101010100000096
:102E30000101010101010101010101010000000086
:102E4000000000000000000001010100000001017D
:102E50000101010101010101010100000001010165
:102E60000101010101010101010000000101010155
:102E7000010101010101010100000000000000004A
:102E8000000000000101010000000000000000003F
:102E90000000000101010000000101010101010128
:102EA0000101010101000000010101010101010115
:102EB000010101010000000000000000000000000E
:102EC00001010100000000000000000000000001FE
:102ED00001010000000000000000000000000101EE
:102EE00001000000010101010101010101010101D5
:102EF00000000000000000000000000001010100CF
:102F000000000101010101010101010101010000B5
:102F100000000000000000000000010101000000AE
:102F2000000000000000000000010101000000009E
:102F3000000000000000000001010100000000008E
:102F40000000000000000001010102020202020272
:102F5000020202020202030303020202030303034A
:102F60000303030303030303020202030303030334
:102F70000303030303030302020203030303030324
:102F80000303030303030202020303030303030314
:102F90000303030303020202030303030303030304
:102FA00003030303020202020202020202020202FD
:102FB00003030302020203030303030303030303E4
:102FC00003030202020303030303030303030303D4
:102FD00003020202030303030303030303030303C4
:102FE00002020202020202020202020203030302BE
:102FF00002020202020202020202020303030202AE
:103000000203030303030303030303030302020294
:103010000303030303030303030303030202020284
:10302000020202020202020203030302020202027D
:10303000020202020202020303030202020202026D
:103040000202020202020303030202020303030359
:103050000303030303030303020202020202020248
:103060000202020203030302020203030303030337
:10307000030303030303020202020202020202022A
:10308000020203030302020202020202020202021D
:10309000020303030202020202020202020202020D
:1030A00003030302020202020202020202020203FC
:1030B0000303474D204C5331206372616E6B2061D6
:1030C0006E642063616D00010101010000000000D9
:1030D00000010101010000000000000101010100E8
:1030E00000000000000000000000000000000000E0
:1030F00000000000010101010000000000000101CA
:1031000001010000000000000101010100000000B9
:10311000000000000000004275656C6C204F646484
:10312000666972652043414D20776865656C0003D0
:10313000030303030303030302020202020000006D
:10314000000000000000010101010101010303036F
:103150000202020202000000000000000000010163
:103160000101010101010101000000000000000057
:103170000000000202020303030303010101010135
:10318000000000000000000000000000000001013D
:103190000101010101030303020202020200000017
:1031A0000000000000000101010101010101010115
:1031B0000000000000000000000000000202034DBB
:1031C000697473756269736869203667373220776E
:1031D0006974682063616D00010001000100010055
:1031E00001000100010001000100030203000100D1
:1031F00001000100010001000100010001000100C7
:1032000001000100010001000100010001000100B6
:1032100001000100010001000100010001000000A7
:103220000100010001000100010001000302030090
:103230000100030203000100010001000100010080
:103240000100010001000100010001000100010076
:103250000100010001000100010001000100010066
:1032600001000100010000004D617A6461204645C3
:10327000332033362D3120776974682063616D0007
:10328000010101010101010101010100010101012F
:103290000101010101010100010001010101010120
:1032A0000101010001010101010101010101010010
:1032B00001010101010101010101010101000101FF
:1032C0000101010101010100474D2034323030205D
:1032D0006372616E6B20776865656C0001000002A7
:1032E00000000100000000000100010001000100D9
:1032F00001000100010001000100010001000100C6
:1033000001000100010001000002000001000100B5
:1033100001000100010001000100010001000100A5
:103320000100010001000000000001000000000099
:103330000100010201000100010001000100010083
:103340000100010001000100010001000100010075
:103350000000000001000100010001000100010067
:1033600001000100010001000100010033362D328F
:103370002D322D32204372616E6B20616E642063AA
:10338000616D000100010001000100010001000168
:103390000001000100010001000100010001000125
:1033A0000001000100010001000000000001000117
:1033B0000001000100010001000100010001000105
:1033C000000000000001000000000033362D322D07
:1033D000322D32204836204372616E6B206F6E6C46
:1033E000790001000100010001000100010001005D
:1033F00001000100010001000100010000000000C7
:1034000001000000000001000100010001000100B6
:1034100001000100010001000100010001000100A4
:103420000000000001000100010033362D322D3272
:103430002D32204834204372616E6B206F6E6C79A0
:103440000001000000010000000100000001000078
:103450000001000000010000000100000001000068
:10346000000100000000000000000000000000005B
:103470000031322D33206F646462616C6C00000196
:103480000001000100010001000100010001000134
:103490000001000100010001000100010001000124
:1034A0000001000100010001000100010001000114
:1034B0000001000100010001000100010001000104
:1034C00000010001000100010001000100010001F4
:1034D00000010001020302030203020302030203CC
:1034E00002030001000100010001000100010001D0
:1034F00000010001000100010001000100010001C4
:1035000000010001000100010001000100010001B3
:1035100000010001000100010001000100010001A3
:10352000000100010001000100010001000102038F
:10353000020300010001000100010001000100017F
:103540000001000100010001000100010001000173
:103550000001000100010001000100010001000163
:103560000001000100010001000100010001000153
:103570000001000100010001000100010001000143
:103580000001000100010001020302030203020323
:103590000203020302030203020302030203020303
:1035A0000001000100010001000100010001000113
:1035B0000001000100010001000100010001000103
:1035C00000010001000100010001000100010001F3
:1035D00000010001000100010001000100010001E3
:1035E00000010203020300010001000100010001CB
:1035F00000010001000100010001000100010001C3
:1036000000010001000100010001000100010001B2
:1036100000010001000100010001000100010001A2
:103620000001000100010001000100010001000192
:10363000000100010001000100010001020302037A
:103640000203020302030203020302030203020352
:103650000203020302030203020302030203000146
:103660000001000100010001000100010001000152
:103670000001000100010001000100010001000142
:103680000001000100010001000100010001000132
:10369000000100010001020302030001000100011A
:1036A0000001000100010001000100010001000112
:1036B0000001000100010001000100010001000102
:1036C00000010001000100010001000100010001F2
:1036D00000010001000100010001000100010001E2
:1036E00000010001000100010001000100010001D2
:1036F00002030203020302030203020302030203A2
:103700000203020302030203020302030203020391
:103710000203020302030203020302030001000189
:103720000001000100010001000100010001000191
:103730000001000100010001000100010001000181
:103740000001000100010001000102030203474DD6
:10375000204F707469537061726B204C5431203368
:10376000363020616E642038000100000000000047
:103770000000010000000000000000000000000048
:10378000006F646420666972652039302064656763
:10379000207061747465726E203020616E64203117
:1037A00033352070756C73657300000000000001F4
:1037B0000101014469737472696275746F722073D8
:1037C00074796C6520342063796C203530646567CA
:1037D000206F66662C20343020646567206F6E0091
:1037E00000010001000100010001000100010001D1
:1037F00000010001000100010001000100010001C1
:1038000000010001000100010001000100010001B0
:1038100000010001000100010001000100010001A0
:103820000001000100010001000100010001000091
:1038300034302D31206372616E6B206F6E6C792095
:1038400028466F72642056313029000000000000C5
:103850000100000000000100000000000100000065
:103860000000010000000000010000000000010055
:103870000000000001000000000001000000000046
:103880000100000000000100000000000100000035
:103890000000000000000000010000000000010026
:1038A0000000000001000000000001000000000016
:1038B0000100000000000100000000000100000005
:1038C00000000100000000000102020202020100EB
:1038D000000000000100000000000031322D312006
:1038E0006372616E6B20776974682063616D00009C
:1038F00000010000010000010000010000010000C3
:1039000000000001000001020201000001000001AE
:10391000000000362D31206372616E6B2077697470
:10392000682063616D0000010001000100010001D9
:10393000000100010000382D31206372616E6B20A0
:103940006F6E6C79202852362900000100010001B9
:1039500000000001020100010000342D31206372DB
:10396000616E6B20776865656C2077697468206389
:10397000616D000100010001000100010001000172
:10398000000100010001000100010001000100012F
:10399000000100010001000100010001000100011F
:1039A00000000032342D31206372616E6B206F6E27
:1039B0006C7900010001000100010001000100011B
:1039C00000010001000100010001000100010001EF
:1039D00000010001000100010001000100010001DF
:1039E00000010001000100010001000100010001CF
:1039F000000100010001000100000033362D3120DC
:103A00006372616E6B206F6E6C79000100010001C2
:103A1000000100010001000100010001000100019E
:103A2000000100010001000100010001000100018E
:103A3000000100010001000100010001000100017E
:103A4000000100010001000100010001000100016E
:103A5000000100010001000100010001000100015E
:103A60000003020302030203020302030203020330
:103A7000020302030203020302030203020302021F
:103A8000020202030203020302030203020302030F
:103A900002030203020302030203020302030203FE
:103AA00002030203020302030203020302030203EE
:103AB00002030203020302030203020302030203DE
:103AC00002030203020302030203020302030203CE
:103AD00002030203020302030201000100010001CC
:103AE00000010001000100010001000100010001CE
:103AF000000100010001000000000036302D3220DE
:103B00006372616E6B20616E64202768616C662051
:103B10006D6F6F6E272063616D0001000100010071
:103B2000010001000100010001000100010001008D
:103B3000010001000100010001000100010001007D
:103B4000010001000100010001000100010001006D
:103B5000010001000100010001000100010001005D
:103B6000010001000100010001000100010001004D
:103B7000010001000100010001000100010001003D
:103B8000010001000100010001000100010000002E
:103B9000000001000100010001000100010001001E
:103BA000010001000100010001000100010001000D
:103BB00001000100010001000100010001000100FD
:103BC00001000100010001000100010001000100ED
:103BD00001000100010001000102010001000100DB
:103BE00001000100010001000100010001000100CD
:103BF00001000100010001000100010001000100BD
:103C00000100010001000000000036302D32206369
:103C100072616E6B20616E642063616D0001000152
:103C2000000100010001000100010001000100018C
:103C3000000100010001000100010001000100017C
:103C4000000100010001000100010001000100016C
:103C5000000100010001000100010001000100015C
:103C6000000100010001000100010001000100014C
:103C7000000100010001000100010001000100013C
:103C8000000100010001000100010001000100012C
:103C9000000000000036302D32206372616E6B2010
:103CA0006F6E6C7900010001000100010038206393
:103CB000796C696E6465722064697A7A79000100B2
:103CC00001000100362063796C696E6465722064BE
:103CD000697A7A790001000100342063796C696E99
:103CE0006465722064697A7A790000000001020339
:103CF0000406080A0C0E111316191C1F2326292D61
:103D00003034373B3E4145484B4E515356585A5C30
:103D10005E606162636464646464636261605E5C8B
:103D20005A585653514E4B4845413E3B3734302D3F
:103D30002926231F1C191613110E0C0A080604034A
:103D4000020100000000000101020203040507084F
:103D50000A0B0D0F11131517191B1E202325282AD6
:103D60002D2F3235373A3C3F414446494B4D4F5158
:103D7000535557595A5C5D5F606162626363646466
:103D80006464646363626261605F5D5C5A59575545
:103D900053514F4D4B494644413F3C3A3735322F02
:103DA0002D2A282523201E1B19171513110F0D0B63
:103DB0000A080705040302020101000000000000D8
:103DC00000010101020203040405060708090A0BA9
:103DD0000C0D0E0F111213151618191B1C1E1F2186
:103DE00023242628292B2D2F3032343537393B3CDC
:103DF0003E404143454648494B4C4E4F5152535526
:103E0000565758595A5B5C5D5E5F606061626263E1
:103E1000636364646464646464646463636362626B
:103E20006160605F5E5D5C5B5A59585756555352EE
:103E3000514F4E4C4B494846454341403E3C3B392F
:103E400037353432302F2D2B2928262423211F1ECD
:103E50001C1B191816151312110F0E0D0C0B0A0945
:103E60000807060504040302020101010000000026
:103E700000002200250028002B002E003100340015
:103E800002010000050108010B01000021002400CF
:103E900027002A002D00300033000101000004013A
:103EA00007010A01050505050705080808080202BB
:103EB00002020A0A080804040404010101010101C4
:103EC00001010303030303030303040707070C0CA7
:103ED0000C0C0C0C0C0C020202020606060606066E
:103EE00006060B0B0B0B0B0B0B0B01021020200813
:103EF0000810204010204080020102010804020145
:103F000001020408102040808040201008040201B3
:103F1000800402018040201008040201080402010C
:103F20000102040810204080010204081020408093
:103F3000F72311241FBECFEFD1E2DEBFCDBF00E0DB
:103F40000CBF15E0A0E0B2E0E4EBF6E500E00BBF4B
:103F500002C007900D92A230B107D9F725E0A2E088
:103F6000B5E001C01D92AB3DB207E1F71FE1C9E921
:103F7000DFE100E006C021970109802FFE010E94C9
:103F8000502BC839D10780E00807A9F70E944B24BD
:103F90000C94582B0C94000090E0FC01E651F14C7D
:103FA00024918C55914CFC018491882399F090E0E8
:103FB000880F991FFC01E657F14CA591B491FC01C3
:103FC000E059F14C859194918FB7F894EC91E22BE4
:103FD000EC938FBF08953FB7F8948091240590919A
:103FE0002505A0912605B091270526B5A89B05C0FB
:103FF0002F3F19F00196A11DB11D3FBFBA2FA92F68
:10400000982F8827BC01CD01620F711D811D911D64
:1040100042E0660F771F881F991F4A95D1F70895D0
:10402000AF92BF92CF92DF92EF92FF920F931F93C6
:10403000CF93DF936C017B018B01040F151FEB0104
:104040005E01AE18BF08C017D10759F06991D601BB
:10405000ED91FC910190F081E02DC6011995892B1D
:1040600079F7C501DF91CF911F910F91FF90EF90EC
:10407000DF90CF90BF90AF900895FC01538D448D99
:10408000252F30E0842F90E0821B930B541710F003
:10409000CF96089501970895FC01918D828D981710
:1040A00061F0A28DAE0FBF2FB11D5D968C91928DE8
:1040B0009F5F9F73928F90E008958FEF9FEF089519
:1040C000FC01918D828D981731F0828DE80FF11DE2
:1040D000858D90E008958FEF9FEF0895FC01918DFD
:1040E000228D892F90E0805C9F4F821B91098F73F6
:1040F0009927089588E295E00E946E2021E0892B9F
:1041000009F420E0822F0895FC01A48DA80FB92F97
:10411000B11DA35ABF4F2C91848D90E001968F73EF
:104120009927848FA689B7892C93A089B1898C910E
:10413000837080648C93938D848D981306C002885D
:10414000F389E02D80818F7D80830895EF92FF9227
:104150000F931F93CF93DF93EC0181E0888F9B8DAA
:104160008C8D98131AC0E889F989808185FF15C064
:104170009FB7F894EE89FF896083E889F989808187
:104180008370806480839FBF81E090E0DF91CF9156
:104190001F910F91FF90EF900895F62E0B8D10E078
:1041A0000F5F1F4F0F731127E02E8C8D8E110CC0E7
:1041B0000FB607FCFACFE889F989808185FFF5CF32
:1041C000CE010E948420F1CFEB8DEC0FFD2FF11D6D
:1041D000E35AFF4FF0829FB7F8940B8FEA89FB896F
:1041E00080818062CFCFCF93DF93EC01888D8823CD
:1041F000B9F0AA89BB89E889F9898C9185FD03C04A
:10420000808186FD0DC00FB607FCF7CF8C9185FF2E
:10421000F2CF808185FFEDCFCE010E948420E9CFCF
:10422000DF91CF91089580E090E0892B29F00E94E2
:104230007A2081110E94000080E090E0892B49F0F3
:1042400080E090E0892B29F00E94000081110E94FB
:10425000000080E090E0892B49F080E090E0892B1D
:1042600029F00E94000081110E94000080E090E08F
:10427000892B49F080E090E0892B29F00E94000012
:1042800081110C9400000895CF93DF93382FC091D3
:10429000CA058CE0C89FE0011124CD5FDD4F832F5C
:1042A0006A3071058105910520F46AE070E080E0D4
:1042B00090E00E94412A2C813D814E815F810E94C5
:1042C000CF2A9B01AC0160E074E284EF9AE40E9483
:1042D000A0290E94122A61157105810521E092072B
:1042E00038F56115710520E48207910520F5611507
:1042F000710528E08207910508F56115710521E037
:1043000082079105F0F430E021E004C0969587958E
:10431000779567953A95D2F7709301026093000202
:104320002093090581E080930805DF91CF910895DE
:104330003AE025E0EACF38E024E0E7CF36E023E0BA
:10434000E4CF33E022E0E1CFFC0101900020E9F767
:104350003197AF01481B590BBC0188E295E00C94E2
:1043600010208F929F92AF92BF920F931F93CF9383
:10437000DF93CDB7DEB7A1970FB6F894DEBF0FBEBF
:10438000CDBF19A2423008F44AE08E010F5D1F4FE5
:10439000842E912CB12CA12CA50194010E946F298F
:1043A000E62FB901CA01EA30F4F4E05DD801EE93DA
:1043B0008D01232B242B252B79F790E080E010979B
:1043C00019F0CD010E94A421A1960FB6F894DEBF8A
:1043D0000FBECDBFDF91CF911F910F91BF90AF90D6
:1043E0009F908F900895E95CE1CFCF93DF930E9477
:1043F000A421EC018DEF94E00E94A4218C0F9D1F5D
:10440000DF91CF910895CF93DF93BC0190E080E0DE
:104410004AE00E94B121EC018DEF94E00E94A421BA
:104420008C0F9D1FDF91CF9108951F93CF93DF9342
:10443000EC01162F0E944E29181739F0612FCE017A
:10444000DF91CF911F910C945629DF91CF911F914D
:1044500008951F93CF93DF93C9ECD5E0698182E083
:1044600090E00E9415226A8183E090E00E9415226C
:1044700062E081E090E00E941522E9E1F5E014811C
:10448000658184E090E00E941522612F85E090E034
:104490000E9415221B816C818CE090E00E94152205
:1044A000612F8DE090E00E9415221D816E8186E0D3
:1044B00090E00E941522612F87E090E00E94152273
:1044C0001F81688588E090E00E941522612F89E0B5
:1044D00090E00E94152219856A858AE090E00E948A
:1044E0001522612F8BE090E00E9415226B858EE0F3
:1044F00090E00E9415226C858FE090E00E941522CA
:104500001D856E8580E190E00E941522612F81E17A
:1045100090E00E9415221F85688982E190E00E9448
:104520001522612F83E190E0DF91CF911F910C94D0
:1045300015220C944E291F920F920FB60F92112440
:104540002F933F938F939F93AF93BF9380912005B9
:1045500090912105A0912205B091230530911F056E
:1045600023E0230F2D3758F50196A11DB11D20938F
:104570001F058093200590932105A0932205B093F9
:1045800023058091240590912505A0912605B091E1
:1045900027050196A11DB11D809324059093250543
:1045A000A0932605B0932705BF91AF919F918F915E
:1045B0003F912F910F900FBE0F901F90189526E8F6
:1045C000230F0296A11DB11DD2CF1F920F920FB6DD
:1045D0000F9211240BB60F922F933F934F935F933B
:1045E0006F937F938F939F93AF93BF93EF93FF93BB
:1045F00088E295E00E948420FF91EF91BF91AF91F6
:104600009F918F917F916F915F914F913F912F91EA
:104610000F900BBE0F900FBE0F901F9018951F921A
:104620000F920FB60F9211240BB60F922F938F9308
:104630009F93EF93FF93E0913805F09139058081C6
:10464000E0913E05F0913F0582FD1DC09081809173
:1046500041058F5F8F7320914205821741F0E091F1
:104660004105F0E0E85DFA4F958F80934105FF9199
:10467000EF919F918F912F910F900BBE0F900FBED6
:104680000F901F9018958081F2CF1F920F920FB656
:104690000F9211240BB60F920F931F932F933F93FA
:1046A0004F935F936F937F938F939F93AF93BF933A
:1046B000EF93FF9380910A0590910B05A091CA0595
:1046C0002CE0A29FD0011124AD5FBD4F1296ED9159
:1046D000FC911397E80FF91FE49180910705E827F3
:1046E000E5B980910A0590910B05019690930B0511
:1046F00080930A0580910A0590910B0518962D91DB
:104700003C912817390721F510920B0510920A05E4
:104710000E94EB1F0091C5051091C6052091C705A9
:104720003091C805601B710B820B930B60930E05D3
:1047300070930F0580931005909311050E94EB1F55
:104740006093C5057093C6058093C7059093C8050F
:1047500080910805882371F080918100887F809383
:1047600081009091090580918100892B80938100BF
:1047700010920805809100029091010290938900A7
:1047800080938800FF91EF91BF91AF919F918F919E
:104790007F916F915F914F913F912F911F910F9159
:1047A0000F900BBE0F900FBE0F901F9018951F9289
:1047B0000F920FB60F9211248F939F93809106054D
:1047C00081110EC0909178008091790089279827F7
:1047D0008927909317058093160581E0809318052B
:1047E0009F918F910F900FBE0F901F901895E8E248
:1047F000F5E01382128288EE93E0A0E0B0E08483BB
:104800009583A683B7838FEE94E09183808385ECB4
:1048100090E09587848784EC90E09787868780EC8A
:1048200090E0918B808B81EC90E0938B828B82EC7B
:1048300090E0958B848B86EC90E0978B868B118E25
:10484000128E138E148EE9ECF5E084E3818384EC00
:1048500099E0948383838AEF90E09683858380EA4E
:104860009FE09087878388EE93E092878187138605
:10487000148680E991E096878587108A1786118AC9
:104880000E94EB1F6093C5057093C6058093C70512
:104890009093C8050895CF93DF93CDB7DEB7C05589
:1048A000D1090FB6F894DEBF0FBECDBF789484B5A2
:1048B000826084BD84B5816084BD85B5826085BD1C
:1048C00085B5816085BD80916E00816080936E00AA
:1048D000109281008091810082608093810080919C
:1048E000810081608093810080918000816080934D
:1048F00080008091B10084608093B1008091B0000D
:1049000081608093B00080919100826080939100DB
:1049100080919100816080939100809190008160EE
:10492000809390008091A10082608093A10080918B
:10493000A10081608093A1008091A000816080939C
:10494000A00080912101826080932101809121014A
:1049500081608093210180912001816080932001FA
:1049600080917A00846080937A0080917A008260DE
:1049700080937A0080917A00816080937A008091A0
:104980007A00806880937A001092C10012E0109340
:10499000C90581E090E00E9499228F3F09F089C10A
:1049A00085E08093CA0588EB9BE090931E05809379
:1049B0001D0590931A05809319051093CB058CEA79
:1049C0009DE09093CD058093CC0580E797E190938F
:1049D000D1058093D00588EE93E09093CF05809326
:1049E000CE059093D3058093D2051092D40583E031
:1049F0008093D50580E991E09093D7058093D60503
:104A00001092D9051092D8050E942922E09138050C
:104A1000F091390582E08083E0913405F09135050D
:104A20001082E0913605F091370580E18083109285
:104A30004005E0913C05F0913D0586E08083E091E2
:104A40003A05F0913B05808180618083E0913A05D1
:104A5000F0913B05808188608083E0913A05F09178
:104A60003B05808180688083E0913A05F0913B05A9
:104A700080818F7D808310920D05F89410928000C4
:104A800010928100109285001092840088EE93E0CD
:104A90009093890080938800809181008860809342
:104AA00081008091810081608093810080916F00FE
:104AB000826080936F001092B0001092B10010924B
:104AC000B20089EF8093B3008091B0008260809340
:104AD000B0008091B10084608093B10080917C002F
:104AE0008F7D80937C0080917C00806480937C002B
:104AF00080917C00807F80937C0080917A00806828
:104B000080937A0080917A00806280937A0080910D
:104B10007B00887F80937B0080917A008760809300
:104B20007A0080917A00886080937A0085E30E9401
:104B3000CC1F84E30E94CC1F83E30E94CC1F789497
:104B400080917A00806480937A0060911D05709155
:104B50001E0590E080E00E9444211CE0F12EEE242E
:104B6000E39408E7802E912C0091190510911A0505
:104B700088E295E00E946E201816190614F58091BF
:104B80000D05811106C088E295E00E944C208093BB
:104B90000C0580910C05833509F47BC208F090C1A7
:104BA0008E3409F4F6C108F080C1833409F4BEC123
:104BB000E3E0CE2EE2E0DE2E8C3409F4CAC110927E
:104BC0000D058091CB05823009F0A8C280911805AF
:104BD000882389F010921805009116051091170589
:104BE00074E0000F111F7A95E1F7093263E21607AE
:104BF00010F008E213E210931A0500931905809152
:104C0000D6059091D7058017910708F438C3809195
:104C1000D405882309F433C380910E0590910F05C4
:104C2000A0911005B0911105892B8A2B8B2B09F4CB
:104C3000C5C20E94EB1F2091C5053091C605409169
:104C4000C7055091C8055B016C01A21AB30AC40ADA
:104C5000D50AA6019501E091CA05FE9EF001112436
:104C6000ED5FFD4F82859385803D924021F4220FB8
:104C7000331F441F551FA0900E05B0900F05C09024
:104C80001005D0901105A8E6B1E00E946429A601A4
:104C900095010E946F298091D8059091D905820FC6
:104CA000931F8936E1E09E0708F48AC28856914036
:104CB000F8CF82E090E00E949922E82E8093CA0506
:104CC00083E090E00E949922F82E8093CB0584E047
:104CD00090E00E949922A82E85E090E00E949922FF
:104CE000BA2CA82EB0921E05A0921D058CE090E073
:104CF0000E949922182F8DE090E00E949922912F16
:104D0000893223E2920710F088E293E2843691051B
:104D100010F484E690E09093CD058093CC0586E076
:104D200090E00E949922C82E87E090E00E9499228C
:104D3000DC2CC82E49E2C41643E2D40620F048E237
:104D4000C42E43E2D42E64E6C616D10418F434E629
:104D5000C32ED12CD092CF05C092CE0588E090E032
:104D60000E949922082F89E090E00E949922102F3A
:104D7000082F093283E2180710F008E213E2043624
:104D8000110510F404E610E01093D1050093D0054E
:104D90008AE090E00E949922982E8BE090E00E9499
:104DA0009922992D8131E7E29E0710F080E197E288
:104DB000883C910510F488EC90E09093D3058093A3
:104DC000D205C016D10630F0045611091093CF0554
:104DD0000093CE058EE090E00E94992291E081112F
:104DE00001C090E09093D4058FE090E00E9499225A
:104DF000D82E8093D50580E190E00E949922082F5B
:104E000081E190E00E949922102F082F1093D7057E
:104E10000093D60582E190E00E949922C82E83E19A
:104E200090E00E9499229C2D9093D9058093D805FB
:104E3000FDE3FE1518F425E02093CA0522E0C22EFA
:104E4000CF1418F421E02093CB0529E9A2162AE318
:104E5000B20630F020EA3FE030931E0520931D0596
:104E60002091190530911A0529393A4330F020EA8A
:104E70003FE030931A052093190565E06D1518F48D
:104E800023E02093D505093E134030F020E931E0BE
:104E90003093D7052093D6058836914008F4B6CDD7
:104EA0001092D9051092D805B1CD803509F478C09B
:104EB000823509F084CE80911D0590911E0533C086
:104EC0008E3609F45AC0E8F4883509F4FFC08336F9
:104ED00009F075CE88E295E00E946E204197D0F3EC
:104EE000BAECCB2EB5E0DB2E88E295E00E944C2098
:104EF000F60181936F01FBEDCF16F5E0DF06A1F718
:104F00005ECE823709F486C0833709F4BFC080378C
:104F100009F055CEE091CA05FE9EF0011124ED5F27
:104F2000FD4F808591850E94032249CEA9ECCA2EAF
:104F3000A5E0DA2EF60161916F0188E295E00E940A
:104F4000A620FBEDAF2EF5E0BF2EAC14BD0491F70B
:104F500036CEF60160817181CE0101960E9447290B
:104F6000CE0101960E94F521FCE0CF0ED11C2BEE64
:104F7000C21624E0D20669F722CE4AE06EE370E062
:104F800080E090E00E94B1218DEF94E00E94A42186
:104F900016CE6091CA0570E090E080E04AE0F2CF62
:104FA000D12CC12CE091CA05FE9EF0011124ED5FC9
:104FB000FD4F80859185C816D906F0F4C114D1043F
:104FC00021F080E095E00E94A421E091CA05FE9EB8
:104FD000F0011124ED5FFD4F0280F381E02DEC0D17
:104FE000FD1D649170E090E080E04AE00E94B121F4
:104FF0004FEFC41AD40AD6CF8FEF94E00E94F52168
:10500000E091CA05FE9EF0011124ED5FFD4F8285FF
:10501000938589CF1092CB0588E295E00E946E209F
:105020000697D4F388E295E00E944C20D82E88E2BF
:1050300095E00E944C20782E612CC3018D2990931D
:10504000CF058093CE0588E295E00E944C20D82EB3
:1050500088E295E00E944C20582E412CC2018D29F7
:105060009093D1058093D00588E295E00E944C2072
:10507000D82E88E295E00E944C20382E212CC101C8
:105080008D299093D3058093D20599CD0E94292232
:1050900096CD88E295E00E946E2018161906CCF78E
:1050A00088E295E00E944C208E3308F088CD8093F2
:1050B000CA0560911D0570911E0590E080E00E9478
:1050C000442110920B0510920A0579CD8091CA05F2
:1050D0008D3301F51092CA0560911D0570911E0572
:1050E00090E080E00E94442110920B0510920A0586
:1050F000E091CA05FE9EF0011124ED5FFD4F608135
:105100007181CE0101960E944729CE0101960E942D
:10511000F52155CD8F5F8093CA05DECF811146C042
:105120000E94EB1FAB01BC012091D2053091D30549
:105130008091120590911305A0911405B091150569
:10514000820F931FA11DB11D84179507A607B707EE
:1051500008F051CD0E94EB1F609312057093130568
:1051600080931405909315050091190510911A0567
:1051700080910202813069F40F5F1F4F8091D0054A
:105180009091D1050817190708F435CD1092020245
:1051900032CD015011098091CE059091CF05801735
:1051A000910708F428CDE092020225CD813009F064
:1051B00022CD0091CC051091CD051DCD90E080E071
:1051C0002091D505233019F038F4213089F064EBB3
:1051D00070E00E943C2B0EC0243081F02530B9F7DE
:1051E0006AE570E00E943C2BFC01E651F34C0CC0D8
:1051F00096958795FC01E454F24C06C0B4010E94D8
:105200003C2BFC01EC5BF24CE4916E2F70E0809142
:10521000DA05882389F00F38F2E01F0768F4069F4B
:10522000C001079F900D169F900D11246091D60527
:105230007091D7050E943C2B6017710718F5709389
:105240001C0560931B0580911B0590911C05081B94
:10525000190B0A30110580F080911D0590911E05F3
:105260000817190729F0B80190E080E00E94442156
:1052700010931E0500931D050E94132175CC70E04C
:1052800060E0DACF10921C0510921B05DCCFFB0109
:10529000DC0105900D920020E1F70895F999FECF09
:1052A00092BD81BDF89A992780B50895262FF99966
:1052B000FECF1FBA92BD81BD20BD0FB6F894FA9AF9
:1052C000F99A0FBE019608950E949129A59F900D0D
:1052D000B49F900DA49F800D911D11240895A1E20B
:1052E0001A2EAA1BBB1BFD010DC0AA1FBB1FEE1F60
:1052F000FF1FA217B307E407F50720F0A21BB30BAB
:10530000E40BF50B661F771F881F991F1A9469F726
:1053100060957095809590959B01AC01BD01CF0182
:105320000895A29FB001B39FC001A39F700D811D7E
:105330001124911DB29F700D811D1124911D08959E
:105340000E94B4290C94952A0E948E2A58F00E943B
:10535000872A40F029F45F3F29F00C947E2A5111EE
:105360000C94C92A0C94842A0E94A62A68F39923D3
:10537000B1F3552391F3951B550BBB27AA27621751
:105380007307840738F09F5F5F4F220F331F441F5E
:10539000AA1FA9F335D00E2E3AF0E0E832D0915092
:1053A0005040E695001CCAF72BD0FE2F29D0660F7F
:1053B000771F881FBB1F261737074807AB07B0E8C2
:1053C00009F0BB0B802DBF01FF2793585F4F3AF0C8
:1053D0009E3F510578F00C947E2A0C94C92A5F3FB9
:1053E000E4F3983ED4F3869577956795B795F7954E
:1053F0009F5FC9F7880F911D9695879597F9089536
:10540000E1E0660F771F881FBB1F621773078407D1
:10541000BA0720F0621B730B840BBA0BEE1F88F7E0
:10542000E09508950E94AE2A88F09F5798F0B92F12
:105430009927B751B0F0E1F0660F771F881F991FC9
:105440001AF0BA95C9F714C0B13091F00E94C82A79
:10545000B1E008950C94C82A672F782F8827B85F89
:1054600039F0B93FCCF3869577956795B395D9F721
:105470003EF490958095709561957F4F8F4F9F4F2B
:105480000895E89409C097FB3EF490958095709537
:1054900061957F4F8F4F9F4F9923A9F0F92F96E980
:1054A000BB279395F695879577956795B795F111F5
:1054B000F8CFFAF4BB0F11F460FF1BC06F5F7F4F92
:1054C0008F4F9F4F16C0882311F096E911C07723A4
:1054D00021F09EE8872F762F05C0662371F096E8AD
:1054E000862F70E060E02AF09A95660F771F881F7C
:1054F000DAF7880F9695879597F9089597F99F673A
:1055000080E870E060E008959FEF80EC089500244B
:105510000A941616170618060906089500240A9418
:1055200012161306140605060895092E0394000C9E
:1055300011F4882352F0BB0F40F4BF2B11F460FF2D
:1055400004C06F5F7F4F8F4F9F4F089557FD905856
:10555000440F551F59F05F3F71F04795880F97FB37
:10556000991F61F09F3F79F08795089512161306F1
:105570001406551FF2CF4695F1DF08C01616170620
:105580001806991FF1CF8695710561050894089555
:10559000E894BB2766277727CB0197F908950E94E7
:1055A000E22A0C94952A0E94872A38F00E948E2ABB
:1055B00020F0952311F00C947E2A0C94842A112457
:1055C0000C94C92A0E94A62A70F3959FC1F3950FE7
:1055D00050E0551F629FF001729FBB27F00DB11D77
:1055E000639FAA27F00DB11DAA1F649F6627B00D07
:1055F000A11D661F829F2227B00DA11D621F739FF0
:10560000B00DA11D621F839FA00D611D221F749FFD
:105610003327A00D611D231F849F600D211D822F44
:10562000762F6A2F11249F5750409AF0F1F088236B
:105630004AF0EE0FFF1FBB1F661F771F881F915098
:105640005040A9F79E3F510580F00C947E2A0C949F
:10565000C92A5F3FE4F3983ED4F386957795679522
:10566000B795F795E7959F5FC1F7FE2B880F911DC2
:105670009695879597F90895AA1BBB1B51E107C022
:10568000AA1FBB1FA617B70710F0A61BB70B881FD2
:10569000991F5A95A9F780959095BC01CD01089561
:1056A000EE0FFF1F881F8BBF0790F691E02D199416
:0456B000F894FFCF9C
:1056B400881301D93CD53C0A85083D04006801C41F
:1056C4003CBE3CCDCC4C3D06006801AD3CA53C48FD
:1056D4008A883D08006801953C1D3C0000803F78A5
:1056E4000068010A3C1A3B0000803FF000D002FB36
:1056F4003A0B3A0000803FF000D002FB39B3399AEC
:1057040099193F48006801A33973390000003F30FC
:105714000068015A394A39488A883D1000D0023657
:10572400392639A987083E100068011339EF389AE1
:1057340099193E2400D002DB384B389A99193F90CE
:1057440000D0023038E037E3AA2A3F50006801B3A2
:1057540037AA379A99193E0900D00281376937CDA3
:10576400CC4C3E180068014E377E3400004040D0D7
:1057740002D00271344134CDCCCC3E300068012AD1
:1057840034E2339A99193F48006801CB3383339A42
:1057940099193F480068016C33DC329A99193F909B
:1057A40000D002C83280329A99193F4800680168D3
:1057B40032D8319A99193F9000D002BF312F319AD3
:1057C40099193F9000D0021731C7303BAAAA3E5026
:1057D40000D002B230E22D0000C040D002D002CA94
:1057E4002DDA2C0000803FF000D002BC2C742C9ADF
:1057F40099193F48006801602C302CCDCC4C3E30C8
:1058040000D002052C752B9A99193F9000D0024CB8
:105814002B7C2800004040D002D00253288325006E
:10582400004040D002D0025A258A2200004040D0D5
:1058340002D0026622D6219A99993F9000D002BBE9
:1058440021EB1E00004040D002D002CF1EFF1B00FF
:10585400004040D002D002D31B8B1B9A99993E483A
:1058640000D002551B151BF888883E4000D002EE7C
:105874001AE61A0A85883D0800D002BF1AB31ACD69
:10588400CCCC3D0C00D0028C1A7C1AA987083E109F
:1058940000D002561A761800008040E001D002566B
:1058A40018EE160000C03F6801D002C81638169AD8
:1058B40099193F9000D0021B16E3110000C03F3835
:1058C40004D002CC113C119A99193F9000D00227C0
:1058D4001109110000803F1E00D002E2105210CDC9
:1058E400CC4C3F900068014610B60F9A99193F902E
:1058F40000D0029D0F0D0F9A99193F9000D002F429
:105904000E640E9A99193F9000D0024B0E7B0B0047
:10591400004040D002D002750BC10A8941C03FB497
:1059240000D002B80A280A9A99193F9000D0021DA3
:105934000A4D0700004040D002D0023D07AD069A50
:1059440099193F9000D002A1061106FA7EAA3E9052
:1059540000D00204067405FA7EAA3E9000D00266C6
:10596400051E059A99193F480068011405AC030007
:1059740000C03F6801D002A403B4020000803FF0DD
:1059840000D0029A02AA010000803FF000D00294E5
:105994000104019A99193F9000D00200000000A66A
:1059A4002010203D20F3206E204C2060200D0A00A2
:0259B4002C00C5
:00000001FF
